{
  "contractName": "Lottery",
  "abi": [
    {
      "inputs": [
        {
          "internalType": "string",
          "name": "_name",
          "type": "string"
        },
        {
          "internalType": "address",
          "name": "_manager",
          "type": "address"
        }
      ],
      "stateMutability": "nonpayable",
      "type": "constructor"
    },
    {
      "anonymous": false,
      "inputs": [
        {
          "indexed": false,
          "internalType": "address",
          "name": "winner",
          "type": "address"
        }
      ],
      "name": "LotteryFinished",
      "type": "event"
    },
    {
      "anonymous": false,
      "inputs": [
        {
          "indexed": false,
          "internalType": "string",
          "name": "playerName",
          "type": "string"
        }
      ],
      "name": "NewPlayer",
      "type": "event"
    },
    {
      "stateMutability": "payable",
      "type": "receive",
      "payable": true
    },
    {
      "inputs": [],
      "name": "getName",
      "outputs": [
        {
          "internalType": "string",
          "name": "",
          "type": "string"
        }
      ],
      "stateMutability": "view",
      "type": "function",
      "constant": true
    },
    {
      "inputs": [
        {
          "internalType": "uint256",
          "name": "_ticketCost",
          "type": "uint256"
        }
      ],
      "name": "activate",
      "outputs": [],
      "stateMutability": "nonpayable",
      "type": "function"
    },
    {
      "inputs": [],
      "name": "getTicketCost",
      "outputs": [
        {
          "internalType": "uint256",
          "name": "",
          "type": "uint256"
        }
      ],
      "stateMutability": "view",
      "type": "function",
      "constant": true
    },
    {
      "inputs": [
        {
          "internalType": "string",
          "name": "_name",
          "type": "string"
        }
      ],
      "name": "buyTicket",
      "outputs": [],
      "stateMutability": "payable",
      "type": "function",
      "payable": true
    },
    {
      "inputs": [],
      "name": "getMyInfo",
      "outputs": [
        {
          "internalType": "string",
          "name": "",
          "type": "string"
        },
        {
          "internalType": "address",
          "name": "",
          "type": "address"
        },
        {
          "internalType": "uint256",
          "name": "",
          "type": "uint256"
        }
      ],
      "stateMutability": "view",
      "type": "function",
      "constant": true
    },
    {
      "inputs": [
        {
          "internalType": "address",
          "name": "playerAddress",
          "type": "address"
        }
      ],
      "name": "getPlayerInfo",
      "outputs": [
        {
          "internalType": "string",
          "name": "",
          "type": "string"
        },
        {
          "internalType": "address",
          "name": "",
          "type": "address"
        },
        {
          "internalType": "uint256",
          "name": "",
          "type": "uint256"
        }
      ],
      "stateMutability": "view",
      "type": "function",
      "constant": true
    },
    {
      "inputs": [],
      "name": "pickWinner",
      "outputs": [],
      "stateMutability": "nonpayable",
      "type": "function"
    }
  ],
  "bytecode": "0x60806040523480156200001157600080fd5b506040516200114b3803806200114b833981810160405260408110156200003757600080fd5b81019080805160405193929190846401000000008211156200005857600080fd5b838201915060208201858111156200006f57600080fd5b82518660018202830111640100000000821117156200008d57600080fd5b8083526020830192505050908051906020019080838360005b83811015620000c3578082015181840152602081019050620000a6565b50505050905090810190601f168015620000f15780820380516001836020036101000a031916815260200191505b506040526020018051906020019092919050505081600090805190602001906200011d92919062000167565b5080600260006101000a81548173ffffffffffffffffffffffffffffffffffffffff021916908373ffffffffffffffffffffffffffffffffffffffff16021790555050506200020d565b828054600181600116156101000203166002900490600052602060002090601f016020900481019282601f10620001aa57805160ff1916838001178555620001db565b82800160010185558215620001db579182015b82811115620001da578251825591602001919060010190620001bd565b5b509050620001ea9190620001ee565b5090565b5b8082111562000209576000816000905550600101620001ef565b5090565b610f2e806200021d6000396000f3fe6080604052600436106100745760003560e01c80635d495aea1161004e5780635d495aea146102675780637daa10ce1461027e578063b260c42a14610332578063fa30b2511461036d576100b9565b806317d7de7c146100be5780633a31a76b1461014e5780635932840114610179576100b9565b366100b9576100b76040518060400160405280600781526020017f756e6b6e6f776e00000000000000000000000000000000000000000000000000815250610428565b005b600080fd5b3480156100ca57600080fd5b506100d36107d9565b6040518080602001828103825283818151815260200191508051906020019080838360005b838110156101135780820151818401526020810190506100f8565b50505050905090810190601f1680156101405780820380516001836020036101000a031916815260200191505b509250505060405180910390f35b34801561015a57600080fd5b5061016361087b565b6040518082815260200191505060405180910390f35b34801561018557600080fd5b506101c86004803603602081101561019c57600080fd5b81019080803573ffffffffffffffffffffffffffffffffffffffff169060200190929190505050610885565b60405180806020018473ffffffffffffffffffffffffffffffffffffffff168152602001838152602001828103825285818151815260200191508051906020019080838360005b8381101561022a57808201518184015260208101905061020f565b50505050905090810190601f1680156102575780820380516001836020036101000a031916815260200191505b5094505050505060405180910390f35b34801561027357600080fd5b5061027c6108fa565b005b34801561028a57600080fd5b50610293610b87565b60405180806020018473ffffffffffffffffffffffffffffffffffffffff168152602001838152602001828103825285818151815260200191508051906020019080838360005b838110156102f55780820151818401526020810190506102da565b50505050905090810190601f1680156103225780820380516001836020036101000a031916815260200191505b5094505050505060405180910390f35b34801561033e57600080fd5b5061036b6004803603602081101561035557600080fd5b8101908080359060200190929190505050610ba0565b005b6104266004803603602081101561038357600080fd5b81019080803590602001906401000000008111156103a057600080fd5b8201836020820111156103b257600080fd5b803590602001918460018302840111640100000000831117156103d457600080fd5b91908080601f016020809104026020016040519081016040528093929190818152602001838380828437600081840152601f19601f820116905080830192505050505050509192919290505050610428565b005b6001600381111561043557fe5b600560009054906101000a900460ff16600381111561045057fe5b148061048157506002600381111561046457fe5b600560009054906101000a900460ff16600381111561047f57fe5b145b61048a57600080fd5b6001543414610501576040517f08c379a000000000000000000000000000000000000000000000000000000000815260040180806020018281038252600b8152602001807f57726f6e672056616c756500000000000000000000000000000000000000000081525060200191505060405180910390fd5b3373ffffffffffffffffffffffffffffffffffffffff16600360003373ffffffffffffffffffffffffffffffffffffffff1673ffffffffffffffffffffffffffffffffffffffff16815260200190815260200160002060010160009054906101000a900473ffffffffffffffffffffffffffffffffffffffff1673ffffffffffffffffffffffffffffffffffffffff161415610605576040517f08c379a00000000000000000000000000000000000000000000000000000000081526004018080602001828103825260178152602001807f596f752061726520616c726561647920706c6179696e6700000000000000000081525060200191505060405180910390fd5b6000600360003373ffffffffffffffffffffffffffffffffffffffff1673ffffffffffffffffffffffffffffffffffffffff16815260200190815260200160002090506004339080600181540180825580915050600190039060005260206000200160009091909190916101000a81548173ffffffffffffffffffffffffffffffffffffffff021916908373ffffffffffffffffffffffffffffffffffffffff160217905550818160000190805190602001906106c3929190610dd4565b50338160010160006101000a81548173ffffffffffffffffffffffffffffffffffffffff021916908373ffffffffffffffffffffffffffffffffffffffff16021790555060048054905081600201819055506002600560006101000a81548160ff0219169083600381111561073457fe5b02179055507f55c57d4d8a0d90b701f7d16efdca8bc6604e0e3bfb9f7152376bdc4e7fa5211b826040518080602001828103825283818151815260200191508051906020019080838360005b8381101561079b578082015181840152602081019050610780565b50505050905090810190601f1680156107c85780820380516001836020036101000a031916815260200191505b509250505060405180910390a15050565b606060008054600181600116156101000203166002900480601f0160208091040260200160405190810160405280929190818152602001828054600181600116156101000203166002900480156108715780601f1061084657610100808354040283529160200191610871565b820191906000526020600020905b81548152906001019060200180831161085457829003601f168201915b5050505050905090565b6000600154905090565b60606000803373ffffffffffffffffffffffffffffffffffffffff16600260009054906101000a900473ffffffffffffffffffffffffffffffffffffffff1673ffffffffffffffffffffffffffffffffffffffff16146108e457600080fd5b6108ed84610c5a565b9250925092509193909250565b3373ffffffffffffffffffffffffffffffffffffffff16600260009054906101000a900473ffffffffffffffffffffffffffffffffffffffff1673ffffffffffffffffffffffffffffffffffffffff161461095457600080fd5b6000600480549050610964610d7a565b8161096b57fe5b069050600360006004838154811061097f57fe5b9060005260206000200160009054906101000a900473ffffffffffffffffffffffffffffffffffffffff1673ffffffffffffffffffffffffffffffffffffffff1673ffffffffffffffffffffffffffffffffffffffff168152602001908152602001600020600660008201816000019080546001816001161561010002031660029004610a0d929190610e54565b506001820160009054906101000a900473ffffffffffffffffffffffffffffffffffffffff168160010160006101000a81548173ffffffffffffffffffffffffffffffffffffffff021916908373ffffffffffffffffffffffffffffffffffffffff16021790555060028201548160020155905050600660010160009054906101000a900473ffffffffffffffffffffffffffffffffffffffff1673ffffffffffffffffffffffffffffffffffffffff166108fc479081150290604051600060405180830381858888f19350505050158015610aed573d6000803e3d6000fd5b506003600560006101000a81548160ff02191690836003811115610b0d57fe5b02179055507fcd0a6fb3beb477df8bc4c3410ecf80a4c48b0578d3d0fa4fc2818a99bcf21fe7600660010160009054906101000a900473ffffffffffffffffffffffffffffffffffffffff16604051808273ffffffffffffffffffffffffffffffffffffffff16815260200191505060405180910390a150565b6060600080610b9533610c5a565b925092509250909192565b3373ffffffffffffffffffffffffffffffffffffffff16600260009054906101000a900473ffffffffffffffffffffffffffffffffffffffff1673ffffffffffffffffffffffffffffffffffffffff1614610bfa57600080fd5b60006003811115610c0757fe5b600560009054906101000a900460ff166003811115610c2257fe5b14610c2c57600080fd5b806001819055506001600560006101000a81548160ff02191690836003811115610c5257fe5b021790555050565b60606000806000600360008673ffffffffffffffffffffffffffffffffffffffff1673ffffffffffffffffffffffffffffffffffffffff1681526020019081526020016000209050806000018160010160009054906101000a900473ffffffffffffffffffffffffffffffffffffffff168260020154828054600181600116156101000203166002900480601f016020809104026020016040519081016040528092919081815260200182805460018160011615610100020316600290048015610d655780601f10610d3a57610100808354040283529160200191610d65565b820191906000526020600020905b815481529060010190602001808311610d4857829003601f168201915b50505050509250935093509350509193909250565b6000424433604051602001808481526020018381526020018273ffffffffffffffffffffffffffffffffffffffff1660601b815260140193505050506040516020818303038152906040528051906020012060001c905090565b828054600181600116156101000203166002900490600052602060002090601f016020900481019282601f10610e1557805160ff1916838001178555610e43565b82800160010185558215610e43579182015b82811115610e42578251825591602001919060010190610e27565b5b509050610e509190610edb565b5090565b828054600181600116156101000203166002900490600052602060002090601f016020900481019282601f10610e8d5780548555610eca565b82800160010185558215610eca57600052602060002091601f016020900482015b82811115610ec9578254825591600101919060010190610eae565b5b509050610ed79190610edb565b5090565b5b80821115610ef4576000816000905550600101610edc565b509056fea2646970667358221220a5fac9fec4626bad78871e4feb54e1718703d8b78e89fc574ddc32511d00d2fc64736f6c63430007000033",
  "immutableReferences": {},
  "source": "// SPDX-License-Identifier: MIT\npragma solidity ^0.7.0;\n\n\nimport { ILottery } from './ILottery.sol';\n\n\ncontract Lottery is ILottery {\n\n    string name;\n    uint ticketCost;\n    address manager;\n    struct Player {\n        string name;\n        address payable wallet;\n        uint index;\n    }\n    mapping (address => Player) players;\n    address[] playerList;\n    Status currentStatus;\n    Player winner;\n\n    event NewPlayer(string playerName);\n    event LotteryFinished(address winner);\n\n    enum Status { inactive, prepared, active, finished }\n\n    constructor(string memory _name, address _manager) {\n        name = _name;\n        manager = _manager;\n    }\n\n    modifier onlyManager() {\n        require(manager == msg.sender);\n        _;\n    }\n\n    function getName() override public view returns (string memory) {\n        return name;\n    }\n\n    function activate(uint _ticketCost) override public onlyManager {\n        require(currentStatus == Status.inactive);\n        ticketCost = _ticketCost;\n        currentStatus = Status.prepared;\n    }\n\n    function getTicketCost() override public view returns (uint) {\n        return ticketCost;\n    }\n\n    function buyTicket(string memory _name) override public payable {\n        require(currentStatus == Status.prepared || currentStatus == Status.active);\n        require(msg.value == ticketCost, 'Wrong Value');\n        // TODO: me parece mas claro verificar el sender que el address(0), pero en \n        // terminos de performance/costos, todavia no se cual es mas conveniente.\n        require(players[msg.sender].wallet != msg.sender, 'You are already playing');\n        // require(players[msg.sender].wallet == address(0), 'You are already playing');\n        Player storage player = players[msg.sender];\n        playerList.push(msg.sender);\n        player.name = _name;\n        player.wallet = msg.sender;\n        player.index = playerList.length;\n        currentStatus = Status.active;  // TODO: esto se ejecuta siempre y no siempre es necesario... consume mas gas ???\n        emit NewPlayer(_name);  // TODO: test event\n    }\n\n    function getMyInfo() public view returns (string memory, address, uint) {\n        return _getPlayerInfo(msg.sender);\n    }\n\n    function getPlayerInfo(address playerAddress) public view onlyManager returns (string memory, address, uint)  {\n        return _getPlayerInfo(playerAddress);\n    }\n\n    function _getPlayerInfo(address playerAddress) private view returns (string memory, address, uint) {\n        Player storage player = players[playerAddress];\n        return (player.name, player.wallet, player.index);\n    }\n\n    receive() external payable {\n        buyTicket('unknown');\n    }\n\n    function generateRandomNumber() private view returns (uint) {\n        // TODO: not recommended for production\n        return uint(keccak256(abi.encodePacked(\n            block.timestamp,\n            block.difficulty,\n            msg.sender\n        )));\n    }\n\n    function pickWinner() override external onlyManager {\n        uint winnerIndex = generateRandomNumber() % playerList.length;\n        winner = players[playerList[winnerIndex]];\n        winner.wallet.transfer(address(this).balance);  // TODO: test transfer\n        currentStatus = Status.finished;\n        emit LotteryFinished(winner.wallet);  // TODO: test event\n    }\n}\n",
  "sourcePath": "/Users/max/code/side/defi/lottery/contracts/Lottery.sol",
  "compiler": {
    "name": "solc",
    "version": "0.7.0+commit.9e61f92b.Emscripten.clang"
  },
  "schemaVersion": "3.3.2",
  "updatedAt": "2021-01-02T18:42:12.068Z",
  "networkType": "ethereum",
  "devdoc": {
    "kind": "dev",
    "methods": {},
    "version": 1
  },
  "userdoc": {
    "kind": "user",
    "methods": {},
    "version": 1
  }
}