{
  "contractName": "LotteryCreator",
  "abi": [
    {
      "inputs": [],
      "name": "getLotteriesQuantity",
      "outputs": [
        {
          "internalType": "uint256",
          "name": "",
          "type": "uint256"
        }
      ],
      "stateMutability": "view",
      "type": "function",
      "constant": true
    },
    {
      "inputs": [
        {
          "internalType": "string",
          "name": "name",
          "type": "string"
        }
      ],
      "name": "createLottery",
      "outputs": [],
      "stateMutability": "nonpayable",
      "type": "function"
    },
    {
      "inputs": [
        {
          "internalType": "contract ILottery",
          "name": "lottery",
          "type": "address"
        }
      ],
      "name": "addLottery",
      "outputs": [],
      "stateMutability": "nonpayable",
      "type": "function"
    },
    {
      "inputs": [
        {
          "internalType": "string",
          "name": "name",
          "type": "string"
        }
      ],
      "name": "getLottery",
      "outputs": [
        {
          "components": [
            {
              "internalType": "string",
              "name": "name",
              "type": "string"
            },
            {
              "internalType": "address",
              "name": "manager",
              "type": "address"
            },
            {
              "internalType": "uint256",
              "name": "timestamp",
              "type": "uint256"
            },
            {
              "internalType": "contract ILottery",
              "name": "lottery",
              "type": "address"
            }
          ],
          "internalType": "struct LotteryCreator.LotteryData",
          "name": "",
          "type": "tuple"
        }
      ],
      "stateMutability": "view",
      "type": "function",
      "constant": true
    }
  ],
  "bytecode": "0x60806040526000805534801561001457600080fd5b50611d6a806100246000396000f3fe60806040523480156200001157600080fd5b5060043610620000525760003560e01c80631684258214620000575780635a6329c5146200007757806387ae7f671462000097578063a8bd110014620000b9575b600080fd5b6200007560048036038101906200006f91906200079f565b620000ef565b005b6200009560048036038101906200008f919062000773565b6200020c565b005b620000a1620003fb565b604051620000b0919062000a13565b60405180910390f35b620000d76004803603810190620000d191906200079f565b62000404565b604051620000e69190620009ef565b60405180910390f35b6000600182604051620001039190620009a2565b90815260200160405180910390209050818160000190805190602001906200012d9291906200059c565b50338160010160006101000a81548173ffffffffffffffffffffffffffffffffffffffff021916908373ffffffffffffffffffffffffffffffffffffffff16021790555042816002018190555081336040516200018a9062000623565b62000197929190620009bb565b604051809103906000f080158015620001b4573d6000803e3d6000fd5b508160030160006101000a81548173ffffffffffffffffffffffffffffffffffffffff021916908373ffffffffffffffffffffffffffffffffffffffff16021790555060008081548092919060010191905055505050565b600060018273ffffffffffffffffffffffffffffffffffffffff166317d7de7c6040518163ffffffff1660e01b815260040160006040518083038186803b1580156200025757600080fd5b505afa1580156200026c573d6000803e3d6000fd5b505050506040513d6000823e3d601f19601f82011682018060405250810190620002979190620007e4565b604051620002a69190620009a2565b908152602001604051809103902090508173ffffffffffffffffffffffffffffffffffffffff166317d7de7c6040518163ffffffff1660e01b815260040160006040518083038186803b158015620002fd57600080fd5b505afa15801562000312573d6000803e3d6000fd5b505050506040513d6000823e3d601f19601f820116820180604052508101906200033d9190620007e4565b816000019080519060200190620003569291906200059c565b50338160010160006101000a81548173ffffffffffffffffffffffffffffffffffffffff021916908373ffffffffffffffffffffffffffffffffffffffff160217905550428160020181905550818160030160006101000a81548173ffffffffffffffffffffffffffffffffffffffff021916908373ffffffffffffffffffffffffffffffffffffffff16021790555060008081548092919060010191905055505050565b60008054905090565b6200040e62000631565b600182604051620004209190620009a2565b9081526020016040518091039020604051806080016040529081600082018054600181600116156101000203166002900480601f016020809104026020016040519081016040528092919081815260200182805460018160011615610100020316600290048015620004d65780601f10620004aa57610100808354040283529160200191620004d6565b820191906000526020600020905b815481529060010190602001808311620004b857829003601f168201915b505050505081526020016001820160009054906101000a900473ffffffffffffffffffffffffffffffffffffffff1673ffffffffffffffffffffffffffffffffffffffff1673ffffffffffffffffffffffffffffffffffffffff168152602001600282015481526020016003820160009054906101000a900473ffffffffffffffffffffffffffffffffffffffff1673ffffffffffffffffffffffffffffffffffffffff1673ffffffffffffffffffffffffffffffffffffffff16815250509050919050565b828054600181600116156101000203166002900490600052602060002090601f016020900481019282601f10620005df57805160ff191683800117855562000610565b8280016001018555821562000610579182015b828111156200060f578251825591602001919060010190620005f2565b5b5090506200061f919062000685565b5090565b61114b8062000bea83390190565b604051806080016040528060608152602001600073ffffffffffffffffffffffffffffffffffffffff16815260200160008152602001600073ffffffffffffffffffffffffffffffffffffffff1681525090565b5b80821115620006a057600081600090555060010162000686565b5090565b600081359050620006b58162000bcf565b92915050565b600082601f830112620006cd57600080fd5b8135620006e4620006de8262000a5e565b62000a30565b915080825260208301602083018583830111156200070157600080fd5b6200070e83828462000b79565b50505092915050565b600082601f8301126200072957600080fd5b8151620007406200073a8262000a5e565b62000a30565b915080825260208301602083018583830111156200075d57600080fd5b6200076a83828462000b88565b50505092915050565b6000602082840312156200078657600080fd5b60006200079684828501620006a4565b91505092915050565b600060208284031215620007b257600080fd5b600082013567ffffffffffffffff811115620007cd57600080fd5b620007db84828501620006bb565b91505092915050565b600060208284031215620007f757600080fd5b600082015167ffffffffffffffff8111156200081257600080fd5b620008208482850162000717565b91505092915050565b620008348162000b15565b82525050565b620008458162000ac3565b82525050565b620008568162000b29565b82525050565b6000620008698262000a8b565b62000875818562000a96565b93506200088781856020860162000b88565b620008928162000bbe565b840191505092915050565b6000620008aa8262000a8b565b620008b6818562000aa7565b9350620008c881856020860162000b88565b620008d38162000bbe565b840191505092915050565b6000620008eb8262000a8b565b620008f7818562000ab8565b93506200090981856020860162000b88565b80840191505092915050565b600060808301600083015184820360008601526200093482826200085c565b91505060208301516200094b60208601826200083a565b50604083015162000960604086018262000980565b5060608301516200097560608601826200084b565b508091505092915050565b6200098b8162000b0b565b82525050565b6200099c8162000b0b565b82525050565b6000620009b08284620008de565b915081905092915050565b60006040820190508181036000830152620009d781856200089d565b9050620009e8602083018462000829565b9392505050565b6000602082019050818103600083015262000a0b818462000915565b905092915050565b600060208201905062000a2a600083018462000991565b92915050565b6000604051905081810181811067ffffffffffffffff8211171562000a5457600080fd5b8060405250919050565b600067ffffffffffffffff82111562000a7657600080fd5b601f19601f8301169050602081019050919050565b600081519050919050565b600082825260208201905092915050565b600082825260208201905092915050565b600081905092915050565b600062000ad08262000aeb565b9050919050565b600062000ae48262000ac3565b9050919050565b600073ffffffffffffffffffffffffffffffffffffffff82169050919050565b6000819050919050565b600062000b228262000b51565b9050919050565b600062000b368262000b3d565b9050919050565b600062000b4a8262000aeb565b9050919050565b600062000b5e8262000b65565b9050919050565b600062000b728262000aeb565b9050919050565b82818337600083830152505050565b60005b8381101562000ba857808201518184015260208101905062000b8b565b8381111562000bb8576000848401525b50505050565b6000601f19601f8301169050919050565b62000bda8162000ad7565b811462000be657600080fd5b5056fe60806040523480156200001157600080fd5b506040516200114b3803806200114b833981810160405260408110156200003757600080fd5b81019080805160405193929190846401000000008211156200005857600080fd5b838201915060208201858111156200006f57600080fd5b82518660018202830111640100000000821117156200008d57600080fd5b8083526020830192505050908051906020019080838360005b83811015620000c3578082015181840152602081019050620000a6565b50505050905090810190601f168015620000f15780820380516001836020036101000a031916815260200191505b506040526020018051906020019092919050505081600090805190602001906200011d92919062000167565b5080600260006101000a81548173ffffffffffffffffffffffffffffffffffffffff021916908373ffffffffffffffffffffffffffffffffffffffff16021790555050506200020d565b828054600181600116156101000203166002900490600052602060002090601f016020900481019282601f10620001aa57805160ff1916838001178555620001db565b82800160010185558215620001db579182015b82811115620001da578251825591602001919060010190620001bd565b5b509050620001ea9190620001ee565b5090565b5b8082111562000209576000816000905550600101620001ef565b5090565b610f2e806200021d6000396000f3fe6080604052600436106100745760003560e01c80635d495aea1161004e5780635d495aea146102675780637daa10ce1461027e578063b260c42a14610332578063fa30b2511461036d576100b9565b806317d7de7c146100be5780633a31a76b1461014e5780635932840114610179576100b9565b366100b9576100b76040518060400160405280600781526020017f756e6b6e6f776e00000000000000000000000000000000000000000000000000815250610428565b005b600080fd5b3480156100ca57600080fd5b506100d36107d9565b6040518080602001828103825283818151815260200191508051906020019080838360005b838110156101135780820151818401526020810190506100f8565b50505050905090810190601f1680156101405780820380516001836020036101000a031916815260200191505b509250505060405180910390f35b34801561015a57600080fd5b5061016361087b565b6040518082815260200191505060405180910390f35b34801561018557600080fd5b506101c86004803603602081101561019c57600080fd5b81019080803573ffffffffffffffffffffffffffffffffffffffff169060200190929190505050610885565b60405180806020018473ffffffffffffffffffffffffffffffffffffffff168152602001838152602001828103825285818151815260200191508051906020019080838360005b8381101561022a57808201518184015260208101905061020f565b50505050905090810190601f1680156102575780820380516001836020036101000a031916815260200191505b5094505050505060405180910390f35b34801561027357600080fd5b5061027c6108fa565b005b34801561028a57600080fd5b50610293610b87565b60405180806020018473ffffffffffffffffffffffffffffffffffffffff168152602001838152602001828103825285818151815260200191508051906020019080838360005b838110156102f55780820151818401526020810190506102da565b50505050905090810190601f1680156103225780820380516001836020036101000a031916815260200191505b5094505050505060405180910390f35b34801561033e57600080fd5b5061036b6004803603602081101561035557600080fd5b8101908080359060200190929190505050610ba0565b005b6104266004803603602081101561038357600080fd5b81019080803590602001906401000000008111156103a057600080fd5b8201836020820111156103b257600080fd5b803590602001918460018302840111640100000000831117156103d457600080fd5b91908080601f016020809104026020016040519081016040528093929190818152602001838380828437600081840152601f19601f820116905080830192505050505050509192919290505050610428565b005b6001600381111561043557fe5b600560009054906101000a900460ff16600381111561045057fe5b148061048157506002600381111561046457fe5b600560009054906101000a900460ff16600381111561047f57fe5b145b61048a57600080fd5b6001543414610501576040517f08c379a000000000000000000000000000000000000000000000000000000000815260040180806020018281038252600b8152602001807f57726f6e672056616c756500000000000000000000000000000000000000000081525060200191505060405180910390fd5b3373ffffffffffffffffffffffffffffffffffffffff16600360003373ffffffffffffffffffffffffffffffffffffffff1673ffffffffffffffffffffffffffffffffffffffff16815260200190815260200160002060010160009054906101000a900473ffffffffffffffffffffffffffffffffffffffff1673ffffffffffffffffffffffffffffffffffffffff161415610605576040517f08c379a00000000000000000000000000000000000000000000000000000000081526004018080602001828103825260178152602001807f596f752061726520616c726561647920706c6179696e6700000000000000000081525060200191505060405180910390fd5b6000600360003373ffffffffffffffffffffffffffffffffffffffff1673ffffffffffffffffffffffffffffffffffffffff16815260200190815260200160002090506004339080600181540180825580915050600190039060005260206000200160009091909190916101000a81548173ffffffffffffffffffffffffffffffffffffffff021916908373ffffffffffffffffffffffffffffffffffffffff160217905550818160000190805190602001906106c3929190610dd4565b50338160010160006101000a81548173ffffffffffffffffffffffffffffffffffffffff021916908373ffffffffffffffffffffffffffffffffffffffff16021790555060048054905081600201819055506002600560006101000a81548160ff0219169083600381111561073457fe5b02179055507f55c57d4d8a0d90b701f7d16efdca8bc6604e0e3bfb9f7152376bdc4e7fa5211b826040518080602001828103825283818151815260200191508051906020019080838360005b8381101561079b578082015181840152602081019050610780565b50505050905090810190601f1680156107c85780820380516001836020036101000a031916815260200191505b509250505060405180910390a15050565b606060008054600181600116156101000203166002900480601f0160208091040260200160405190810160405280929190818152602001828054600181600116156101000203166002900480156108715780601f1061084657610100808354040283529160200191610871565b820191906000526020600020905b81548152906001019060200180831161085457829003601f168201915b5050505050905090565b6000600154905090565b60606000803373ffffffffffffffffffffffffffffffffffffffff16600260009054906101000a900473ffffffffffffffffffffffffffffffffffffffff1673ffffffffffffffffffffffffffffffffffffffff16146108e457600080fd5b6108ed84610c5a565b9250925092509193909250565b3373ffffffffffffffffffffffffffffffffffffffff16600260009054906101000a900473ffffffffffffffffffffffffffffffffffffffff1673ffffffffffffffffffffffffffffffffffffffff161461095457600080fd5b6000600480549050610964610d7a565b8161096b57fe5b069050600360006004838154811061097f57fe5b9060005260206000200160009054906101000a900473ffffffffffffffffffffffffffffffffffffffff1673ffffffffffffffffffffffffffffffffffffffff1673ffffffffffffffffffffffffffffffffffffffff168152602001908152602001600020600660008201816000019080546001816001161561010002031660029004610a0d929190610e54565b506001820160009054906101000a900473ffffffffffffffffffffffffffffffffffffffff168160010160006101000a81548173ffffffffffffffffffffffffffffffffffffffff021916908373ffffffffffffffffffffffffffffffffffffffff16021790555060028201548160020155905050600660010160009054906101000a900473ffffffffffffffffffffffffffffffffffffffff1673ffffffffffffffffffffffffffffffffffffffff166108fc479081150290604051600060405180830381858888f19350505050158015610aed573d6000803e3d6000fd5b506003600560006101000a81548160ff02191690836003811115610b0d57fe5b02179055507fcd0a6fb3beb477df8bc4c3410ecf80a4c48b0578d3d0fa4fc2818a99bcf21fe7600660010160009054906101000a900473ffffffffffffffffffffffffffffffffffffffff16604051808273ffffffffffffffffffffffffffffffffffffffff16815260200191505060405180910390a150565b6060600080610b9533610c5a565b925092509250909192565b3373ffffffffffffffffffffffffffffffffffffffff16600260009054906101000a900473ffffffffffffffffffffffffffffffffffffffff1673ffffffffffffffffffffffffffffffffffffffff1614610bfa57600080fd5b60006003811115610c0757fe5b600560009054906101000a900460ff166003811115610c2257fe5b14610c2c57600080fd5b806001819055506001600560006101000a81548160ff02191690836003811115610c5257fe5b021790555050565b60606000806000600360008673ffffffffffffffffffffffffffffffffffffffff1673ffffffffffffffffffffffffffffffffffffffff1681526020019081526020016000209050806000018160010160009054906101000a900473ffffffffffffffffffffffffffffffffffffffff168260020154828054600181600116156101000203166002900480601f016020809104026020016040519081016040528092919081815260200182805460018160011615610100020316600290048015610d655780601f10610d3a57610100808354040283529160200191610d65565b820191906000526020600020905b815481529060010190602001808311610d4857829003601f168201915b50505050509250935093509350509193909250565b6000424433604051602001808481526020018381526020018273ffffffffffffffffffffffffffffffffffffffff1660601b815260140193505050506040516020818303038152906040528051906020012060001c905090565b828054600181600116156101000203166002900490600052602060002090601f016020900481019282601f10610e1557805160ff1916838001178555610e43565b82800160010185558215610e43579182015b82811115610e42578251825591602001919060010190610e27565b5b509050610e509190610edb565b5090565b828054600181600116156101000203166002900490600052602060002090601f016020900481019282601f10610e8d5780548555610eca565b82800160010185558215610eca57600052602060002091601f016020900482015b82811115610ec9578254825591600101919060010190610eae565b5b509050610ed79190610edb565b5090565b5b80821115610ef4576000816000905550600101610edc565b509056fea2646970667358221220a5fac9fec4626bad78871e4feb54e1718703d8b78e89fc574ddc32511d00d2fc64736f6c63430007000033a2646970667358221220d8053f91054b584d2f4c3e330af4e33f8f25a0a883431c34b294117335cb1f9d64736f6c63430007000033",
  "immutableReferences": {},
  "source": "// SPDX-License-Identifier: MIT\npragma solidity ^0.7.0;\npragma experimental ABIEncoderV2;\n\nimport { Lottery } from './Lottery.sol';\nimport { ILottery } from './ILottery.sol';\n\ncontract LotteryCreator {\n    uint256 quantity = 0;\n    struct LotteryData {\n        string name;\n        address manager;\n        uint256 timestamp;\n        ILottery lottery;\n    }\n    mapping(string => LotteryData) lotteries;\n\n    function getLotteriesQuantity() public view returns (uint256) {\n        return quantity;\n    }\n\n    function createLottery(string memory name) public {\n        LotteryData storage data = lotteries[name];\n        data.name = name;\n        data.manager = msg.sender;\n        data.timestamp = block.timestamp;\n        data.lottery = new Lottery(name, msg.sender);\n        quantity++;\n    }\n\n    function addLottery(ILottery lottery) external {  // TODO: add tests\n        LotteryData storage data = lotteries[lottery.getName()];\n        data.name = lottery.getName();\n        data.manager = msg.sender;\n        data.timestamp = block.timestamp;\n        data.lottery = lottery;\n        quantity++;\n    }\n\n    function getLottery(string memory name) public view returns (LotteryData memory) {\n        return lotteries[name];\n    }\n}\n",
  "sourcePath": "/Users/max/code/side/defi/lottery/contracts/LotteryCreator.sol",
  "compiler": {
    "name": "solc",
    "version": "0.7.0+commit.9e61f92b.Emscripten.clang"
  },
  "schemaVersion": "3.3.2",
  "updatedAt": "2021-01-02T18:42:11.162Z",
  "networkType": "ethereum",
  "devdoc": {
    "kind": "dev",
    "methods": {},
    "version": 1
  },
  "userdoc": {
    "kind": "user",
    "methods": {},
    "version": 1
  }
}